:100000000C94D1000C94EE000C94EE000C94EE00D5
:100010000C94EE000C94EE000C94EE000C94EE00A8
:100020000C94EE000C94EE000C94EE000C94EE0098
:100030000C94EE000C94EE000C94A8050C94EE00C9
:100040000C94EE000C94EE000C94EE000C94EE0078
:100050000C94EE000C94EE000C94EE000C94EE0068
:100060000C94EE000C942E060C94EE000C94B40646
:100070000C94EE000C94EE000C94EE000C94EE0048
:100080000C94EE000C94EE000C94EE000C94EE0038
:100090000C94EE000C94EE000C94EE000C94EE0028
:1000A0000C94EE000C94EE000C94EE000C94EE0018
:1000B0000C94EE000C94EE000C94EE000C94EE0008
:1000C0000C94EE000C94EE000C94EE000C94EE00F8
:1000D0000C94EE000C94EE000C94EE000C94EE00E8
:1000E0000C94EE000C94EE000C9439080C94EE0085
:1000F0000C9472080C94EE000C94EE000C94EE003C
:100100000C94EE000C94EE000C94EE000C94EE00B7
:100110000C94EE000C94EE000C94EE000C94EE00A7
:100120000C94EE000C94EE000C94EE000C94EE0097
:100130000C94EE000C94EE000C94EE000C94EE0087
:100140000C94EE000C94EE000C94EE000C94EE0077
:100150000C94EE000C94EE000C94EE000C94EE0067
:100160000C941F070C94EE000C94A6070C94EE0060
:100170000C94EE000C94EE001901210028FF1A01E6
:1001800030053005000D01050501150211001402AE
:100190000E000F0410016364696E6F7073757858F8
:1001A0005B0011241FBECFEFD7E2DEBFCDBF12E24E
:1001B000A0E0B0E2E2E2FFE102C005900D92AE3FA6
:1001C000B107D9F723E2AEEFB2E201C01D92A73C1E
:1001D000B207E1F70E941A010C948F0F0C940000F3
:1001E0001F928CE08F9380E290E29F938F930E9406
:1001F000F2088FEF0E9475070F900F900F900F90ED
:10020000803211F40C941C0408951F928CE08F939B
:1002100087E490E29F938F930E94F2088FEF0E94F1
:1002200075070F900F900F900F90803211F40C947F
:10023000BC01089584E090E28093C1239093C2238F
:1002400082E190E28093C3239093C423F894809139
:10025000A2008873816098ED94BF8093A2001092F1
:10026000A1000E94AC080E9418060E9408070E9484
:10027000FC078BE380934106C0E2C093010688E34C
:100280008093610688E18093700680937106809365
:100290005606809357060E94820582E193E20E94EF
:1002A000940582E193E20E94700782E193E20E944A
:1002B0007E0682E193E20E946D08789482E080934A
:1002C00045068FE690E20E94060981E0809346068B
:1002D000EFE3FCE93197F1F700C000008093450699
:1002E0008FE39CE90197F1F700C00000C093060678
:1002F0000E9404030E94F0000E9404030E94130461
:100300000E94AC010E9405010E94AC0185E790E2C9
:100310009F938F930E94F2080F900F90CDE7D0E249
:1003200010E20E94CF02811110C01F921F92DF9332
:10033000CF930E94F208109305060E949E0210932C
:1003400006060F900F900F900F908FE39FE101979B
:10035000F1F700C00000E5CF40E150E060E070E060
:1003600084E193E20C94FB0D40E150E060E070E02A
:1003700084E193E20C94170E2F923F924F925F927A
:100380006F927F928F929F92AF92BF92CF92DF92A5
:10039000EF92FF920F931F93CF93DF9300D000D083
:1003A000CDB7DEB74BE9242E40E2342E52EB452E7A
:1003B00050E2552E62ECE62E60E2F62E8E010F5FC3
:1003C0001F4F7DEDC72E70E2D72EE3E0AE2EE1E2A7
:1003D000BE2E1F922CE02F9385E890E29F938F937F
:1003E0000E94F2083F922F920E94F2085F924F9271
:1003F0000E94F20834E1832E33E2932ECDBFDEBF9C
:100400003401F30181913F011F928F93FF92EF928C
:100410000E94F2080F900F900F900F90FCE16F1662
:10042000F3E27F0671F788EC90E29F938F930E942E
:10043000F2082CE1622E23E2722E0F900F909301AE
:10044000F90181919F011F928F93FF92EF92EB83AD
:100450003C830E94F2080F900F900F900F902B8119
:100460003C81F3E224323F0759F71F930F938AED43
:1004700090E29F938F930E9435090F900F900F90F9
:100480000F9089819A818130910541F020F0029787
:1004900009F09FCF20C00E94B4013AC06624639443
:1004A000712C7F926F92DF92CF920E94F2081F937D
:1004B0000F93BF92AF920E9435098981F401819315
:1004C0004F01FFEF6F1A7F0ACDBFDEBF99E06916BB
:1004D000710439F77ECF88248394912C9F928F9258
:1004E000DF92CF920E94F2081F930F93BF92AF92B8
:1004F0000E9435098981F30181933F01FFEF8F1A33
:100500009F0ACDBFDEBF99E08916910439F761CF0C
:100510002496CDBFDEBFDF91CF911F910F91FF9049
:10052000EF90DF90CF90BF90AF909F908F907F9093
:100530006F905F904F903F902F90089580E00E94C1
:10054000B3038FE39CE90197F1F700C0000080E05E
:100550000E94E106809167230E94E10681E00E94EB
:10056000E10690916423809165239817A1F0E091B2
:100570006523F0E0EC5DFC4D80810E94E1068091F6
:1005800065238F5F8093652380916523803431F4E8
:1005900010926523089580E00C94E10608958091FF
:1005A0000123882359F18AE00E94830690916723F2
:1005B000981326C08AE00E9483068AE00E94830680
:1005C0008F3301F58AE00E9483068AE00E94830649
:1005D00086951F928F9386E091E29F938F930E945E
:1005E000F2080F900F900F900F9003C08AE00E94C6
:1005F0008306809101238111F9CF089581E0089548
:1006000084E0089582E008954EE150E060E170E0FA
:1006100086E693E20C94FB0D4EE150E060E170E061
:1006200086E693E20C94170E4EE150E068E771E025
:1006300086E693E20C94E908CF93DF93C82FD62F78
:1006400002C00E946206809101238111FACF82E0EC
:10065000809346060E946206C235C1F158F4C73441
:10066000B9F118F4C334D9F512C0CE3499F1C035BC
:10067000B1F50FC0C83521F128F4C33599F0C43560
:1006800071F509C0C93581F0CA3549F51DC083E44B
:1006900003C080E501C084E50E94E1060E94620675
:1006A0008D2F19C083E506C089E50E94E1060E94EE
:1006B00062068D2F0E94E1060E946206D82F10C0AC
:1006C00088E50E94E1060BC08AE505C082E503C00B
:1006D00087E401C08EE40E94E1060E946206D0E039
:1006E00082E080934506C83519F088E50E94E1064E
:1006F0008D2FDF91CF910895EF92FF920F931F936B
:10070000CF93DF93C0E0D0E08BE0E82E81E2F82EBB
:1007100000E111E2DF93CF93FF92EF920E94F20883
:100720006C2F89E50E941C039FEF21EE34E091506D
:1007300020403040E1F700C000001F928F931F93CC
:100740000F930E94F20821968DB79EB708968DBF31
:100750009EBFC533D105F1F6DF91CF911F910F9167
:10076000FF90EF900895682F84E50C941C03EF929E
:10077000FF920F931F93CF93DF93EC01F62E82E04D
:10078000809346060E946206182F1F928F9327E1DE
:1007900031E23F932F930E94F2088DE40E94E1061C
:1007A0000E9462061F921F9380E291E29F938F93B3
:1007B0000E94F208F6948DB79EB708968DBF9EBF33
:1007C000E12C0FE211E21BC088811F928F931F93CF
:1007D0000F930E94F20888810E94E10689811F928E
:1007E0008F931F930F930E94F208898122960E9493
:1007F000E106E3948DB79EB708968DBF9EBFEF10BC
:10080000E3CF8FEF0E94E1060E94620688E50E9416
:10081000E10682E080934506DF91CF911F910F9111
:10082000FF90EF9008956EE186E693E20C94B70393
:1008300085E391E20C9406092F923F924F925F92CA
:100840006F927F928F929F92AF92BF92CF92DF92E0
:10085000EF92FF920F931F93CF93DF9300D0CDB70A
:10086000DEB788E491E29F938F930E94F2088CE5B3
:1008700091E29F938F930E94F2080F900F900F9038
:100880000F902CEE222E21E2322E33E0432E32E264
:10089000532E4BE2642E42E2742E5EE3C52E52E2EA
:1008A000D52E69E5A62E62E2B62E7FE7872E72E28C
:1008B000972E8E010F5F1F4F88E691E29F938F93D3
:1008C0000E94F2088DE990E29F938F930E94F208B4
:1008D000809167231F928F9381E891E29F938F937A
:1008E0000E94F20880916B231F928F938AE991E214
:1008F0009F938F930E94F20880916F231F928F9392
:1009000088EB91E29F938F930E94F208809173236A
:100910001F928F9385ED91E29F938F930E94F2082F
:10092000809175231F928F933F922F920E94F2081D
:10093000809179231F928F935F924F920E94F208C9
:1009400080916D231F928F937F926F920E94F20885
:10095000CDBFDEBFDF92CF920E94F208BF92AF926E
:100960000E94F2089F928F920E94F20881E992E21F
:100970009F938F930E94F2081F930F939AEDE92E95
:1009800090E2F92EFF92EF920E943509CDBFDEBFB3
:1009900089819A818530910509F467C090F482308D
:1009A0009105D9F130F4009709F1019709F08CC055
:1009B00028C08330910509F440C0049709F084C031
:1009C00048C08830910509F476C040F4863091051E
:1009D00009F459C0079709F077C061C089309105C3
:1009E00009F46CC00A9709F06FC06BC086EB92E205
:1009F0009F938F930E94F2080E940C030F900F9018
:100A00006CC00E9418041F930F93FF92EF920E94F4
:100A100035098981809367230BC00E9418041F93B6
:100A20000F93FF92EF920E943509898180936B2387
:100A30000F900F900F900F903FCF0E9418041F93BC
:100A40000F93FF92EF920E943509898180936F2363
:100A5000EFCF0E9418041F930F93FF92EF920E9412
:100A60003509898180937323E3CF0E9418041F9373
:100A70000F9382ED92E29F938F930E9435098981B3
:100A800080937523D5CF0E9418041F930F93FF9274
:100A9000EF920E943509898180937923C9CF0E9402
:100AA00018041F930F93FF92EF920E9435098981DA
:100AB00080936D23BDCF0E947C03FECE0E94140361
:100AC000FBCE0E941304F8CE85ED92E29F938F93A4
:100AD0000E94F2080F900F90EFCE0F900F90DF91D1
:100AE000CF911F910F91FF90EF90DF90CF90BF902B
:100AF000AF909F908F907F906F905F904F903F90BE
:100B00002F900895F894E0E0F8E081E08683A0EA71
:100B1000B0E012968C93118286E0808382EE94E09E
:100B200086A397A378940895809386239093872330
:100B30000895E0E6F6E080858370880F880FE0E492
:100B4000F6E090859295969596959370892B0895E9
:100B50001F920F920FB60F9211242F933F934F9332
:100B60005F936F937F938F939F93AF93BF93CF9335
:100B7000DF93EF93FF93E0918623F09187238081A9
:100B8000882319F08081815080838091892381504E
:100B90008093892380918923811137C084E68093D3
:100BA00089230E94990580938523909185238091C4
:100BB0008423892790918523882339F1ECE1F3E29E
:100BC00080FF18C0A0916423B0E0AC5DBC4D90FFE5
:100BD00002C0208103C0EF01289728812C93209127
:100BE00064232F5F2093642320916423203411F425
:100BF0001092642386959695319623E2E032F207AF
:100C0000F9F68091852380938423FF91EF91DF9102
:100C1000CF91BF91AF919F918F917F916F915F9194
:100C20004F913F912F910F900FBE0F901F901895ED
:100C3000E0E4F6E088E085838183E0EAF8E083E0A1
:100C400085838381807C8461838385EF86838CECBC
:100C500087838481807E8C61848308951F920F92A4
:100C60000FB60F9211248F939F93EF93FF93809170
:100C7000A1089091A0088C71E1F480910323E82FE2
:100C8000F0E0EC56FC4D90838F5F809303238091BE
:100C90000323883011F410920323809101238F5F86
:100CA00080930123883029F41092012381E08093FE
:100CB0000423FF91EF919F918F910F900FBE0F90A2
:100CC0001F901895809101238823E1F390910223CE
:100CD000E92FF0E0EC56FC4D80819F5F909302235A
:100CE00090910223983011F410920223F89490917D
:100CF00001239150909301237894089580938A233F
:100D000090938B230895E0918A23F0918B23808325
:100D1000E0918A23F0918B2380910123811103C0FC
:100D200080818111F9CF80818823D1F080910223C5
:100D3000E82FF0E0EC56FC4D208130E08F5F80938F
:100D4000022380910223883011F410920223F89438
:100D5000809101238150809301237894316002C0F7
:100D600020E030E0C90108951F920F920FB60F9254
:100D700011248F939F93EF93FF938091FE228823FA
:100D8000B9F08091FE2281508093FE228091FF2253
:100D9000E82FF0E0E457FC4D90819093A0088F5F1E
:100DA0008093FF228091FF22883011F41092FF225D
:100DB000FF91EF919F918F910F900FBE0F901F9019
:100DC00018959091FE229830E1F3F8949091FE22CC
:100DD000911104C09091A10895FD16C09091002337
:100DE000E92FF0E0E457FC4D80839F5F9093002350
:100DF00080910023883011F4109200238091FE220C
:100E00008F5F8093FE2202C08093A008789408959B
:100E1000E0E6F6E08CE0858388E08183E0EAF9E0B3
:100E200083E085838381807C8461838385EF8683EF
:100E30008CEC87838481807E8C61848308951F92EB
:100E40000F920FB60F9211248F939F93EF93FF93FE
:100E50008091A1099091A0098C71E1F480910A23FD
:100E6000E82FF0E0E456FC4D90838F5F80930A23D7
:100E700080910A23883011F410920A23809108236C
:100E80008F5F80930823883029F41092082381E033
:100E900080930B23FF91EF919F918F910F900FBE45
:100EA0000F901F901895809108238823E1F390916B
:100EB0000923E92FF0E0E456FC4D80819F5F909379
:100EC000092390910923983011F410920923F89482
:100ED00090910823915090930823789490E008957E
:100EE0008093AC239093AD230895E091AC23F091CF
:100EF000AD238083E091AC23F091AD238091082352
:100F0000811103C080818111F9CF80818823E1F0B4
:100F1000809108238823E1F390910923E92FF0E0E1
:100F2000E456FC4D80819F5F9093092390910923A3
:100F3000983011F410920923F8949091082391505D
:100F4000909308237894089580E008951F920F925B
:100F50000FB60F9211248F939F93EF93FF9380917D
:100F600005238823B9F080910523815080930523C0
:100F700080910623E82FF0E0EC55FC4D9081909392
:100F8000A0098F5F8093062380910623883011F497
:100F900010920623FF91EF919F918F910F900FBEBA
:100FA0000F901F901895909105239830E1F3F894D5
:100FB00090910523911104C09091A10995FD16C04F
:100FC00090910723E92FF0E0EC55FC4D80839F5F63
:100FD0009093072380910723883011F41092072300
:100FE000809105238F5F8093052302C08093A00921
:100FF000789480E090E008958EE290E00E94070EE1
:101000008F3F19F08093AE2308C084E08093AE2315
:1010100064E08EE290E00E94210E8CE080938506D1
:1010200088E18093920688E08093810680E1809336
:10103000660680E28093660683E08093A50A80912D
:10104000A30A807C84618093A30AE091AE23F0E040
:10105000EE0FFF1FE451FD4D908181819093A60A10
:101060008093A70A8091A40A807E8C618093A40A51
:1010700008951F920F920FB60F9211248F939F9392
:10108000EF93FF938091A10A9091A00A8C71E1F4F3
:1010900080911023E82FF0E0E754FC4D90838F5FA0
:1010A0008093102380911023883011F41092102324
:1010B00080910E238F5F80930E23883029F4109245
:1010C0000E2381E080931123FF91EF919F918F91E7
:1010D0000F900FBE0F901F9018958093AF239093A1
:1010E000B02308951F920F920FB60F9211248F9381
:1010F0009F93EF93FF9380910C238823C1F08091FD
:101100000C23815080930C2380910D23E82FF0E075
:10111000EF54FC4D90819093A00A8F5F80930D2334
:1011200080910D23883079F410920D230CC0109219
:10113000102310920F2310920E2380E180936606F5
:1011400080E280936606FF91EF919F918F910F90BF
:101150000FBE0F901F9018959FB7F89482E0809370
:10116000520080915000886080935000809151001F
:1011700083FFFCCF8091500082608093500080916B
:101180004100807828ED24BF809341008091560073
:101190008C7F826080935600809160008160809394
:1011A00060008091510081FFFCCF80914000887FDA
:1011B000816028ED24BF80934000809150008A7E9A
:1011C000809350008091B4008C7F8093B4009FBFC7
:1011D0000895FB01DC0102C005900D924150504082
:1011E000D8F70895A0E0B0E0E8EFF8E00C946E0FB7
:1011F000FE01359661917191AF018091C323909169
:10120000C4230E944909E2E00C94870F0F931F93B7
:10121000CF93DF938C01E091C323F091C4238381AA
:1012200081FF1BC0C0E0D0E005C00995892B11F0FB
:10123000CFEFDFEFF80181918F016091C3237091AF
:10124000C423DB011896ED91FC9119978111EDCF24
:101250008AE00995892B09F402C0CFEFDFEFCE01B8
:10126000DF91CF911F910F910895A0E0B0E0EBE3E3
:10127000F9E00C946E0FFE01359661917191AF010A
:101280008091C1239091C2230E94CD0CE2E00C9486
:10129000870FACE0B0E0EFE4F9E00C945E0F7C0166
:1012A0006B018A01FC0116821782838181FFC6C10E
:1012B00088248394912C8C0E9D1EF7019381F60156
:1012C00093FD859193FF81916F01882309F4B2C149
:1012D000853239F493FD859193FF81916F018532B9
:1012E00029F4B70190E00E94B60EE7CF512C312CC3
:1012F00020E02032A8F48B3261F028F4803251F0E3
:10130000833271F40BC08D3239F0803349F421609F
:1013100028C02260246025C0286023C0206121C02D
:1013200027FD27C0382F30533A3078F426FF06C007
:10133000FAE05F9E300D1124532E13C08AE0389ED0
:10134000300D1124332E20620CC08E3221F426FD84
:1013500071C1206406C08C3611F4206802C0883642
:1013600041F4F60193FD859193FF81916F01811105
:10137000C0CF982F9554933018F09052933028F4A2
:101380000C5F1F4FFFE3F9830DC0833631F08337C5
:1013900071F0833509F05EC023C0F8018081898334
:1013A0000E5F1F4F44244394512C540115C0380143
:1013B000F2E06F0E711CF801A080B18026FF03C01F
:1013C000652D70E002C06FEF7FEFC5012C870E9492
:1013D0006B0E2C0183012C856FE7262E222218C06C
:1013E0003801F2E06F0E711CF801A080B18026FF79
:1013F00003C0652D70E002C06FEF7FEFC5012C8741
:101400000E94570E2C012C8550E8252E222A83019C
:1014100023FC1CC006C0B70180E290E00E94B60E1B
:101420003A94832D90E048165906A8F30FC0F501B1
:1014300027FC859127FE81915F01B70190E00E9412
:10144000B60E31103A94F1E04F1A5108411451048C
:1014500071F7EDC0843611F0893641F5F80127FFA8
:1014600007C060817181828193810C5F1F4F08C02A
:1014700060817181882777FD8095982F0E5F1F4FBF
:101480004FE6B42EB22297FF09C0909580957095D3
:1014900061957F4F8F4F9F4FF0E8BF2A2AE030E0E1
:1014A000A4010E94FD0EA82EA81843C0853731F470
:1014B0003FEEB32EB2222AE030E024C099EFB92EDD
:1014C000B2228F36B9F020F4883509F0B3C00DC0D0
:1014D000803721F0883709F0ADC002C020E1B22A80
:1014E000B4FE0BC084E0B82A08C024FF09C0E6E0BF
:1014F000BE2A06C028E030E005C020E130E002C08E
:1015000020E132E0F801B7FE07C06081718182817D
:1015100093810C5F1F4F06C06081718180E090E075
:101520000E5F1F4FA4010E94FD0EA82EA818FFE712
:10153000BF22B6FE0BC02B2D2E7FA51450F4B4FE97
:101540000AC0B2FC08C02B2D2E7E05C07A2C2B2D94
:1015500003C07A2C01C0752C24FF0DC0FE01EA0DDA
:10156000F11D8081803311F4297E09C022FF06C05D
:101570007394739404C0822F867809F0739423FDCA
:1015800014C020FF0FC05A2C731460F4530C57186A
:10159000732C08C0B70180E290E02C870E94B60E41
:1015A00073942C857314B0F304C0731410F43718BB
:1015B00001C0312C24FF12C0B70180E390E02C87DA
:1015C0000E94B60E2C8522FF1EC021FF03C088E5B5
:1015D00090E002C088E790E0B7010CC0822F8678C7
:1015E00091F021FD02C080E201C08BE227FD8DE277
:1015F000B70190E00E94B60E06C0B70180E390E00C
:101600000E94B60E5A94A514C0F3AA94F401EA0DF0
:10161000F11DB701808190E00E94B60EA110F5CFB8
:1016200006C0B70180E290E00E94B60E3A943110F5
:10163000F8CF43CEF7012681378102C02FEF3FEF6D
:10164000C9012C96E2E10C94770F20FD09C0FC0142
:1016500023FD05C022FF02C0738362835183408350
:101660000895CF92DF92EF92FF920F931F9344FD64
:1016700010C046FD10C0DB01FC01AA0FBB1FEE1F0E
:10168000FF1F1094D1F76A0F7B1F8E1F9F1F31E041
:1016900003C033E001C034E0660F771F881F991F35
:1016A0003150D1F76B017C01C20ED11CE11CF11C41
:1016B00097018601B601C9011F910F91FF90EF902C
:1016C000DF90CF9008950F931F93CF93DF938C01FA
:1016D000C8010E94760EEC0197FD08C00E94440EDE
:1016E000892BB1F7B801CE010E94E20ECE01DF9145
:1016F000CF911F910F9108958F929F92AF92CF92A9
:10170000DF92EF92FF920F931F93CF93DF93EC0141
:10171000A62E4A01022F0E94760EAC0155274B32AD
:10172000510521F04D32510551F40068AA9411F48D
:1017300080E063C0CE010E94760E97FDF9CF102F96
:101740001D7F302F3073E1F48033D1F4AA9409F473
:1017500040C0CE010E94760E97FD3BC0883711F045
:10176000883549F41264AA94A1F1CE010E94760E44
:1017700097FF06C02EC006FF02C0126001C01261B2
:10178000C12CD12C7601282F2053283080F014FF53
:1017900004C0BE010E94E20E19C02A3040F016FFBC
:1017A000F8CF2F7D322F3151363098F72750412F07
:1017B000C701B6010E94310B6B017C011260AA9433
:1017C00059F0CE010E94760E97FFDDCF11FD04C0C7
:1017D000AFCFC12CD12C760117FF08C0F094E09454
:1017E000D094C094C11CD11CE11CF11C212FB70165
:1017F000A601C4010E94250B81E0DF91CF911F91CA
:101800000F91FF90EF90DF90CF90AF909F908F90CF
:1018100008956F927F929F92AF92BF92CF92DF9284
:10182000EF92FF920F931F93CF93DF93CDB7DEB765
:10183000A197CDBFDEBF6C017A018901FE0131960F
:1018400080E2DF011D928A95E9F7D60113969C90FC
:1018500020E030E0A12CA0E0B12CCF0141E050E02D
:10186000F80193FC759193FE71918F01711103C082
:1018700000E010E080C07E3519F42115310559F1E2
:10188000EB2DF0E0E217F3073CF47D3569F17D3292
:1018900019F4AA2319F103C0A11101C0A72EE72F43
:1018A000E695E695E6953C016E0E711CF301A72FB7
:1018B000A7703A0102C0660C771CAA95E2F7D30123
:1018C000B081BA2BB0837A1559F07A1510F47F5F86
:1018D000E6CF7150E4CFBB24B39403C0A1E001C0B4
:1018E000A0E02F5F3F4FBCCFAA2319F08E8180620A
:1018F0008E83B11003C0BB24B3940BC0FE0131969C
:10190000CE018196208120952193E817F907D1F720
:10191000F2CFC60169A30E94760E69A197FD24C08B
:10192000282F269526952695E1E0F0E0EC0FFD1F87
:10193000E20FF11D208130E0AC014770552702C055
:10194000359527954A95E2F720FD04C0B6010E941F
:10195000E20E0AC0E114F10419F0D7018D937D0164
:101960006150B12CB1F602C0B11082CFE114F10484
:1019700011F0F7011082C801A196CDBFDEBFDF9143
:10198000CF911F910F91FF90EF90DF90CF90BF907C
:10199000AF909F907F906F9008954F925F927F924B
:1019A0008F929F92AF92BF92CF92DF92EF92FF926F
:1019B0000F931F93CF93DF931F92CDB7DEB78C01A8
:1019C0002B017A01FC0116821782A12CF0C08C2D0C
:1019D00090E00E94440E892B21F0C8010E94630B05
:1019E000E6C0F5E2CF120AC0F201D3FC3591D3FE76
:1019F00031912F01353271F455E2C52EC8010E9494
:101A0000760E97FDDFC0C81609F4D1C0B8010E9458
:101A1000E20EDAC03A3241F4D3FC3591D3FE319173
:101A20002F01BB24B39401C0B12C712C10C0F2E083
:101A3000BF2A672D70E080E090E040E20E94310B09
:101A4000762EF201D3FC3591D3FE31912F01232F55
:101A500020532A3060F3B1FE03C0711003C0B4C03C
:101A600077247A94383619F03C3699F40AC0F2019A
:101A7000D3FC3591D3FE31912F01383651F4F8E083
:101A8000BF2A84E0B82AF201D3FC3591D3FE31910C
:101A90002F01332309F498C0632F70E086E991E0A9
:101AA00039830E944C0E3981892B09F48DC0B0FC1A
:101AB00007C0F701C080D18082E0E80EF11C02C0AF
:101AC000C12CD12C3E3651F4F8014681578160E09B
:101AD00070E02B2DC6010E94250B69C0333691F4AE
:101AE000B1FC02C077247394C8010E94760E97FD62
:101AF00069C0C114D10419F0F60181936F017A9481
:101B000099F753C03B3559F49201A601672DC801DE
:101B10000E94090C2C01009709F047C041C0C80180
:101B200039830E94630B398197FD4CC03F3659F1D0
:101B300028F4343629F1393649F52AC0333719F0FB
:101B4000353721F51DC0C8010E94760E4C0197FD66
:101B500011C00E94440E892B29F0B801C4010E94D3
:101B6000E20E08C0C114D10419F0F60181926F0190
:101B70007A9449F7C114D104C1F0F601108215C05E
:101B8000F0E2BF2A05C080E1B82A02C090E4B92A79
:101B90002B2DA601672DC8010E947C0B811105C069
:101BA000F8018381807371F40FC0B0FEA394F80133
:101BB000D380F201D3FCC590D3FEC1902F01C11098
:101BC00006CF02C0AA2019F02A2D30E002C02FEF64
:101BD0003FEFC9010F90DF91CF911F910F91FF90BF
:101BE000EF90DF90CF90BF90AF909F908F907F90BD
:101BF0005F904F900895E0ECF1E0A785A7FDFDCF41
:101C0000A485A860A4876050704F0C94620E03D026
:101C1000808199270895E0ECF1E0378537FDFDCF0D
:101C2000348538603487FC01E050F04F0895DC01C2
:101C3000CB0103C02D910E94220E41505040D0F79D
:101C40000895262FE0ECF1E0378537FDFDCF348590
:101C5000377F3487378531FF09C036E3328738ED67
:101C600034BF31E03387378537FDFDCF33E332872B
:101C7000808391831282248325E3228728ED31E03B
:101C800024BF338701960895911115C1803219F050
:101C900089508550D0F70895FC010590061621F073
:101CA0000020D9F7C00108953197CF010895FC01B4
:101CB0000590615070400110D8F7809590958E0F77
:101CC0009F1F0895FB01DC0102C001900D9241505D
:101CD0005040D8F70895FC01615070400190011008
:101CE000D8F7809590958E0F9F1F0895CF93DF931F
:101CF000EC013B8130FF34C036FF0AC03F7B3B83A1
:101D00008E819F8101968E839F832A8130E02AC035
:101D100032FF0FC0E881F9818081992787FD909576
:101D2000009719F430623B831BC03196E883F98336
:101D30000EC0EA85FB85099597FF09C02B810196A6
:101D400011F480E101C080E2822B8B8309C02E81D7
:101D50003F812F5F3F4F2E833F839C01332702C07B
:101D60002FEF3FEFC901DF91CF9108950F931F939C
:101D7000CF93DF938C01EB018B8181FD03C00FEFCB
:101D80001FEF1AC082FF0DC02E813F818C819D8183
:101D90002817390764F4E881F9810193E883F9830E
:101DA00006C0E885F985802F0995892B41F78E813A
:101DB0009F8101968E839F83C801DF91CF911F91F0
:101DC0000F910895FB01238120FF13C026FD11C050
:101DD0008F3F3FEF930769F082832F7D2064238339
:101DE0002681378121503109268337839C0133278F
:101DF00002C02FEF3FEFC9010895FA01AA2728304A
:101E000051F1203181F1E8946F936E7F6E5F7F4FC7
:101E10008F4F9F4FAF4FB1E03ED0B4E03CD0670F43
:101E2000781F891F9A1FA11D680F791F8A1F911D96
:101E3000A11D6A0F711D811D911DA11D20D009F4E6
:101E400068943F912AE0269F11243019305D319328
:101E5000DEF6CF010895462F4770405D4193B3E011
:101E60000FD0C9F7F6CF462F4F70405D4A3318F0B8
:101E7000495D31FD4052419302D0A9F7EACFB4E069
:101E8000A6959795879577956795BA95C9F7009721
:101E90006105710508959B01AC010A2E06945795C2
:101EA000479537952795BA95C9F7620F731F841F19
:101EB000951FA01D08959927882708952F923F9276
:101EC0004F925F926F927F928F929F92AF92BF924A
:101ED000CF92DF92EF92FF920F931F93CF93DF93F6
:101EE000CDB7DEB7CA1BDB0BCDBFDEBF09942A8896
:101EF000398848885F846E847D848C849B84AA841E
:101F0000B984C884DF80EE80FD800C811B81AA81AA
:101F1000B981CE0FD11DCDBFDEBFED010895F8947C
:021F2000FFCFF1
:101F22000100000000000001000000000000530753
:101F320000000000000200000000D30700000000C3
:101F420025634B6F6E666967757261636A612072A1
:101F5200616469612E204E616369736E696A2073E0
:101F62007061636AEA0A0025634B6F6E6669677582
:101F72007261636A61206D6F6475B3752E204E6164
:101F820063699C6E696A20737061636AEA0A006819
:101F9200656C6C6F0050524143410A0D0067663D0B
:101FA20025640A0D002563555354415749454E494E
:101FB20041204D4F4455A3550A0D000A0A302057BF
:101FC200796A9C636965207A20656479636A690A23
:101FD2000D0031206B6F6479207A776172E62020E0
:101FE20020002530325820000A0D32206B6F6479B0
:101FF20020726F7A776172E620002564000A0D7004
:102002006F64616A206E6F77B920776172746F9C1A
:10201200E620646C612077656A9C636961202564AF
:102022000A0D0025780050256420002532783D00F5
:1020320025327820202000746573743D25630A00E0
:102042007465737420706F204D203D25630A00254E
:102052003032783D00706F64616A206E6F77B9200C
:10206200776172746F9CE6000A0D636F6D70696C24
:102072006174696F6E206461746520004D6179201E
:1020820031362032303134000A0D0A0D5553544195
:102092005749454E494120524144494F57450A0D3F
:1020A200003120556E696B61746F777920616472BB
:1020B2006573202D3E25640A0D003220416472654D
:1020C2007320726F7A67B36F737A656E696F77790F
:1020D200202D3E25640A0D003320537A79626B6FFE
:1020E2009CE6207472616E736D69736A69202D3E7D
:1020F20025640A0D0034204B616E61B32072616465
:10210200696F7779202D3E25640A0D0035204D6FC9
:1021120063206F64203120646F2035202D3E2564BA
:102122000A0D00362043524320302D6272616B3B10
:1021320020322D6B6F6E74726F6C6120616B7479DB
:10214200776E61202D3E25640A0D00372053797386
:1021520074656D206964202D3E25640A0D003820C7
:102162004F64637A797220656570726F6D207A2090
:102172005243313138300A0D00392070727A797742
:10218200726163616E69652075737461776965F167
:10219200206661627279637A6E7963680A0D003132
:1021A20030205573746177205243313138300A0D33
:1021B200000A5779626965727A206E756D657220C0
:1021C200706172616D6574727520646F20656479E7
:1021D200636A690A0D004B6F6E696563206B6F6EEF
:1021E200666967757261636A692072616469610A0E
:1021F2000D002569007779626965727A20706F70C7
:102202007261776E79206E756D657200040D03FD43
:0E22120001EDFDDCF5CC9EC8E5BC8EB86EA8D3
:00000001FF
